:03000000020431C6
:0C043100787FE4F6D8FD75816B0204783A
:100C2200015C00C101C100016700016B00016900A4
:060C3200016800016A06E2
:0B0D0E00120A58308DFD12074E80F8CD
:100A5800755D17755E04755F0A7560167561287592
:100A68006232756319E4F564756541F566120CC662
:100A7800120D23120AE27BFF7A0C7982E4FF120B33
:100A8800D87BFF7A0579427F01120BD87BFF7A0B5E
:070A980079567F02020BD822
:0D0CF5000569E569B46405E4F569B2A4225F
:10074E00120D2A120CF5120A9FE56A64067015F551
:10075E0068FB7A00795D1206CD7B007A00795D1216
:10076E0005C6802F0568E568C39432501978217C40
:10077E00007D007B007A00795D7E007F0A1200DE2C
:10078E00856A2B02064AE568C39432401EE56894DA
:10079E0064501878227C007D007B007A00795D7EA3
:0F07AE00007F0A1200DEAF5C0203A1E4F56822AF
:100CC600758901758CEC758A78C28DD28CD2A9D2C1
:020CD600AF224B
:03000B00020003ED
:07000300758CEC758A783260
:100C8200E55C7018056BE56BD39403400F756B013F
:0D0C92000567E567D394014003E4F5672290
:10054200E56B24FE602F14605424027076E5677018
:100552000FD200055DE55DD394634067E4F55D224B
:10056200E5676401705DD2010560E560D3941740D0
:1005720052E4F56022E567700FD200055EE55ED3B6
:10058200940C403F755E0122E56764017035D2012B
:100592000561E561D3943B402AE4F56122E5677089
:1005A2000FD200055FE55FD3941F4017755F0122EC
:1005B200E567B4010ED2010562E562D3943B4003C4
:0405C200E4F56222D8
:100B5600055CE55CC394024003E4F55CE55C640176
:100B6600701E30010BFB7A00795DFF120184C20111
:100B760030000D7B007A00795D7F01120184C2008E
:060B8600E4F567F56B22A7
:100A9F00E567701BE56BB40104E4F56A22E56BB4FE
:100AAF000204756A0122E56BB40304756A0222E53C
:100ABF0067B4011BE56BB40104756A0322E56BB4DF
:100ACF000204756A0422E56BB40304756A05227586
:030ADF006A062282
:040D350000000000BA
:030C3800011A009E
:100BB300C2A0051AE51AD394045002C322E4F51A1D
:100BC300D2A07F03FE120D1920A00830A0FD20A0A3
:050BD300FDD322C32246
:100C9F0030A0FD7F057E00120D1930A00520A0FDAC
:040CAF00D322C32267
:100C4400E4F529F52AF52AE52925E0F529120C9F72
:0F0C5400E4334229052AE52AC3940840EAAF2970
:010C6300226E
:0605C6008B218A2289232B
:1005CC00E4F52478257C00FD7BFF7A0D7935FE7FE0
:1005DC00041200DE120BB35064120C448F25120C63
:1005EC00448F26120C448F27120C448F29120C4472
:1005FC00E525252625272528AB21AA22A92390000D
:10060C0008B5071CE52512015C900009E5261201CE
:10061C005C900006E52712015C900007E528801A23
:10062C00745912015C900009746212015C9000060E
:0D063C00745F12015C900007743B12015CBA
:01064900228E
:070D2300C290C291C29222AE
:0208F300A90753
:1008F500E4FBC29000D29000C29100C292007E003B
:100905007401A803088005C333CE33CED8F9FFE9B7
:10091500F582EF558224FF9292D29100C291000B8D
:10092500BB08DBE4FB7E007401A803088005C33324
:10093500CE33CED8F9FFEDF582EF558224FF9292A2
:0D094500D29100C291000BBB08DBC29000F4
:010952002282
:02095300AD07EE
:10095500E4F9FB430501C29000D29000C29100C2A8
:1009650092007E007401A803088005C333CE33CE00
:10097500D8F9FFEDF582EF558224FF9292C29100DE
:10098500D291000BBB08DBE4FBD29100C291003091
:10099500920DA8037401088002C333D8FC42010BF1
:0B09A500BB08E6C29000C29200AF0148
:0109B0002224
:100184008B218A228923AC07E4FD7F8E1208F3ECCD
:10019400700302022714604A14600302026CAB214C
:1001A400AA22A923120104FF120CB3AD077F8C12FB
:1001B40008F3AB21AA22A92390000112011DFF120A
:1001C4000CB3AD077F881208F3AB21AA22A92390B0
:1001D400000212011DFF120CB3AD077F861208F353
:1001E4008041AB21AA22A923120104FF120CB3AD52
:1001F400077F8C1208F3AB21AA22A92390000112D5
:10020400011DFF120CB3AD077F881208F3AB21AABE
:1002140022A92390000212011DFF120CB3AD077F27
:10022400868042AB21AA22A92390000312011DFF5C
:10023400120CB3AD077F841208F3AB21AA22A923C1
:1002440090000412011DFF120CB3AD077F82120847
:10025400F3AB21AA22A92390000512011DFF120C61
:0F026400B3AD077F801208F37D807F8E0208F311
:1006CD008B218A2289237F8C120953120CD8AB21DE
:1006DD00AA22A923EF12014A7F88120953120CD8BE
:1006ED00AB21AA22A923900001EF12015C7F861293
:1006FD000953120CD8AB21AA22A923900002EF12A4
:10070D00015C7F84120953120CD8AB21AA22A923B4
:10071D00900003EF12015C7F82120953120CD8ABCB
:10072D0021AA22A923900004EF12015C7F801209F7
:10073D0053120CD8AB21AA22A923900005EF020178
:01074D005C4F
:050C3B000308FFFFFFAC
:100BD800EF75F005A4240BF87601EF75F005A42451
:100BE8000CF87601EF75F005A4240DF8A60308A605
:050BF8000208A6012225
:100A0500E4F521F521E52175F005A4240BF8E6FFB1
:100A1500E52175F005A4240CF8E6FE6F602BEE7059
:100A250012E52175F005A4240DF808E6FA08E6F9A3
:100A350012017EE52175F005A4240BF8E6FFE521FA
:100A450075F005A4240CF8A6070521E521C3940338
:020A550040B3AC
:010A5700227C
:1009B100E4FFA2A133FEEF14600B14600C2402705B
:1009C1000DA2A18006A2A28002A2A3E433FE7408B4
:1009D1002FF8E625E04EFD74082FF8A60574082FC0
:1009E100F8E6FD700CEF75F005A4240BF8E4F68031
:1009F1000EEDB4FF0AEF75F005A4240BF876010F94
:030A0100BF03B37D
:010A040022CF
:060D2A001209B1020A05E6
:0F0CD800EFC4540F75F00AA4FEEF540F2EFF2245
:100CB300EF75F00A84C454F0FEEF75F00A84EE2554
:030CC300F0FF221D
:0A0D1900EF1F70011E144E70F72248
:100C6400D3EF9400EE940040147D7D7C00ED1D7064
:0D0C7400011CED4C70F7EF1F70E61E80E3D1
:010C81002250
:1004BD004175746F723A577568756166656E670A36
:1004CD004769743A66616D6572636F646572004564
:1004DD0072726F72202D2D2D3E0A202053756E469F
:1004ED006F756E64657200004014540000000000CA
:1004FD000054696D653A78783A78783A78780000E2
:10050D000000000000446174653A78782F78782FE8
:10051D007878000000000054656D703A78782E7878
:10052D00782043000000000048756D693A78782EF8
:05053D00787820250084
:030C4000011B0095
:100AE200C2A5C2A7C2027F33120BFDC2027F32121D
:100AF2000BFDC2027F28120BFDC2027F0C120BFDFE
:100B0200C2027F06120BFD120CE77BFF7A0479BD4D
:0D0B1200120B1F7FB87E0B120C64020CE763
:100BFD008F5B120D3040FBA20292A60053800FE5D1
:100C0D005B54F04280120D0253800FE55BC454F02B
:050C1D004280020D02FF
:040B8C008F558D569E
:100B900078577C007D007BFF7A0479F47E007F0427
:100BA0001200DE74572555F8E625564480FFC20230
:030BB000020BFD38
:100B1F008B558A568957AB55AA56A95712010460AF
:100B2F0025B40A06C2027FC0800CAB55AA56A9573E
:100B3F00120104FFD202120BFD74012557F557E481
:060B4F003556F55680D07A
:010B5500227D
:0E0CE700C2027F01120BFD7F057E00020C642D
:0C0D0200C2A700D2A70000C2A700002278
:040D3000C203A20355
:010D3400229C
:040273008F2C8D2D12
:1002770078387C007D007BFF7A0479F87E007F0662
:100287001200DE783E7C007D007BFF7A0479FE7EDB
:10029700007F0E1200DEE53175F00A84F538E5318E
:1002A70075F00A8485F039E53275F00A84F53AE588
:1002B7003275F00A8485F03BE53375F00A84F53C26
:1002C700E53375F00A8485F03DE531B4FF067543E3
:1002D7006E75446EE532B4FF0675466E75476EE57A
:1002E70033B4FF0675496E754A6E75510075520035
:1002F70075533E75540E7B007A007938AD2DAF2CBF
:030307000207BD2D
:04030A008F2C8D2D7A
:10030E0078387C007D007BFF7A05790C7E007F06B5
:10031E001200DE783E7C007D007BFF7A0579127E2E
:10032E00007F0E1200DEE52E75F00A84F538E52EFC
:10033E0075F00A8485F039E52F75F00A84F53AE5F3
:10034E002F75F00A8485F03BE53075F00A84F53C94
:10035E00E53075F00A8485F03DE52EB4FF06754351
:10036E006E75446EE52FB4FF0675466E75476EE5E5
:10037E0030B4FF0675496E754A6E755100755200A0
:10038E0075533E75540E7B007A007938AD2DAF2C27
:03039E000207BD96
:040829008F2C8D2D56
:10082D0078387C007D007BFF7A0579207E007F047F
:10083D001200DE783C7C007D007BFF7A0579247EFA
:10084D00007F0D1200DEE53475F00A84F538E534CD
:10085D0075F00A8485F039E53575F00A84F53AE5C9
:10086D003575F00A8485F03B75510075520075534E
:10087D003C75540D7B007A007938AD2DAF2C0207F5
:01088D00BDAD
:04088E008F2C8D2DF1
:1008920078387C007D007BFF7A0579317E007F0409
:1008A2001200DE783C7C007D007BFF7A0579357E84
:1008B200007F0D1200DEE53675F00A84F538E53664
:1008C20075F00A8485F039E53775F00A84F53AE562
:1008D2003775F00A8485F03B7551007552007553E7
:1008E2003C75540D7B007A007938AD2DAF2C020790
:0108F200BD48
:0203A1008F21AA
:1003A300E51B6521600A120CE77F2C7E01120C64A9
:1003B30085211BE521146036047066782E7C007D50
:1003C300007B007A0079227E007F0A1200DEE4FDC2
:1003D300FF12030A782E7C007D007B007A007922CD
:1003E3007E007F0A1200DEE4FD7F01020273782E95
:1003F3007C007D007B007A0079227E007F0A120058
:10040300DEE4FDFF120829782E7C007D007B007A54
:100413000079227E007F0A1200DEE4FD7F010208DC
:0D0423008E120CE77BFF7A0479DC120B1FB0
:0104300022A9
:10064A00E52B14601514601714601914601B1460EC
:10065A001D2405701C7521FF80177522FF801275F5
:10066A0023FF800D7524FF80087525FF80037526FA
:10067A00FFE52B600964016005E52BB40219782EA9
:10068A007C007D007B007A0079217E007F0A1200BF
:10069A00DEE4FDFF02030AE52B6403600BE52B642D
:1006AA00046005E52BB4051A782E7C007D007B00DA
:1006BA007A0079217E007F0A1200DEE4FD7F0112B2
:0306CA0002732296
:0807BD008F4C8B4E8A4F8950CE
:1007C500E4FFFEEFC39554504DAB51AA52A9538F88
:1007D5008275830012011DB4781DAB4EAA4FA95036
:1007E5008E8275830012011D2430AB51AA52A95384
:1007F5008F827583008018AB51AA52A9538F8275D9
:10080500830012011DB46E0B8F8275830074201254
:10081500015C0E0F80ADAF4C120B8CAB51AA52A9E7
:0408250053020B1F50
:10043D00020D0EE493A3F8E493A34003F68001F2BA
:10044D0008DFF48029E493A3F85407240CC8C333C0
:10045D00C4540F4420C8834004F456800146F6DF8F
:10046D00E4800B0102040810204080900C22E47EF1
:10047D00019360BCA3FF543F30E509541FFEE49384
:10048D00A360010ECF54C025E060A840B8E493A34B
:10049D00FAE493A3F8E493A3C8C582C8CAC583CA76
:1004AD00F0A3C8C582C8CAC583CADFE9DEE780BE2E
:010C430000B0
:10000E00E709F608DFFA8046E709F208DFFA803ED4
:10001E0088828C83E709F0A3DFFA8032E309F608C1
:10002E00DFFA8078E309F208DFFA807088828C8329
:10003E00E309F0A3DFFA806489828A83E0A3F608DD
:10004E00DFFA805889828A83E0A3F208DFFA804CB7
:10005E0080D280FA80C680D4806980F2803380108E
:10006E0080A680EA809A80A880DA80E280CA8033F7
:10007E0089828A83ECFAE493A3C8C582C8CCC5836F
:10008E00CCF0A3C8C582C8CCC583CCDFE9DEE7803F
:10009E000D89828A83E493A3F608DFF9ECFAA9F0BE
:1000AE00EDFB2289828A83ECFAE0A3C8C582C8CC14
:1000BE00C583CCF0A3C8C582C8CCC583CCDFEADE2D
:1000CE00E880DB89828A83E493A3F208DFF980CC8F
:1000DE0088F0EF60010E4E60C388F0ED2402B40488
:1000EE000050B9F582EB2402B4040050AF2323452F
:0600FE00822390005E73F6
:10010400BB010689828A83E0225002E722BBFE02F9
:09011400E32289828A83E493222C
:10011D00BB010CE58229F582E5833AF583E0225097
:10012D0006E92582F8E622BBFE06E92582F8E222E1
:0D013D00E58229F582E5833AF583E49322FB
:10014A00BB010689828A83F0225002F722BBFE0194
:02015A00F3228E
:10015C00F8BB010DE58229F582E5833AF583E8F0D9
:10016C00225006E92582C8F622BBFE05E92582C885
:02017C00F2226D
:06017E008A838982E4730C
:00000001FF
