:0300000002046592
:0C046500787FE4F6D8FD75816A0204ACD3
:100BAE00C102C101C100015A00016A00015B0001CE
:0B0BBE005C00015D00015E06014E00BE
:0B0E0600120B54308DFD120A3080F8F2
:100B5400120B81120D4A120E1B120A777BFF7A0BBD
:100B64007921E4FF120C217BFF7A0679777F011249
:0D0B74000C217BFF7A0A79EB7F02020C2135
:100B8100754F1775500475510A75521675532875AE
:100B91005432755519E4F556755741F5587559068E
:0D0BA10075620D75631975641E7569062275
:100C6B0030001F055D055CE55CB46405E4F55CB222
:100C7B00A4AF5D7E00BE040ABFB007C200E4F55D01
:030C8B00F55C22F3
:100A3000120E22120C6B120575120D0CE55EB40637
:100A400016E4F55BFB7A00794F1205F67B007A001D
:100A5000794F1204F18009055BE55BC394325003C2
:100A6000020C8EE55BC394324009E55B946450034D
:070A7000020CAEE4F55B226D
:100D4A00758901758CEC758A78C28DD28CD2A9D23C
:020D5A00AF22C6
:03000B00020003ED
:07000300758CEC758A783260
:0F0D5C00D201054FE54FD394634003E4F54F22D6
:0F0D6B00D2010550E550D3940C4003755001227E
:0F0D7A00D2010551E551D3941F40037551012259
:0F0D8900D2020552E552D394174003E4F55222EB
:0F0D9800D2020553E553D3943B4003E4F55322B5
:0F0DA700D2020554E554D3943B4003E4F55422A3
:0D0DD3000562E562D394174003E4F5622247
:0D0DE0000563E563D3943B4003E4F5632213
:0D0DED000564E564D3943B4003E4F5642203
:100B2100E54E24FE601D24027028056AE56AD3940F
:100B310003401F756A01055AE55AD394014013E435
:100B4100F55A22755A01056AE56AD3940340037583
:030B51006A012214
:10067700E54E24FE605124027074E55A7008E56A5D
:10068700B40103120D5CE55A7008E56AB40203125F
:100697000D6BE55A7008E56AB40303120D7AE55A43
:1006A700B40108E56AB40103120D89E55AB40108DB
:1006B700E56AB40203120D98E55A64017030E56AE1
:1006C7006403702A020DA7E55AB40108E56AB4016C
:1006D70003120DD3E55AB40108E56AB40203120DFB
:0F06E700E0E55AB40108E56AB40303120DED22F1
:100AEB00054EE54EC394034003E4F54EE54E640119
:100AFB00701E30020BFB7A00794FFF120184C20289
:100B0B0030010D7B007A00794F7F01120184C20105
:060B1B00E4F55AF56A2220
:10057500755E06E54E24FE605024027073E55A70E0
:1005850008E56AB40103E4F55EE55A7008E56AB466
:100595000203755E01E55A7008E56AB40303755EEA
:1005A50002E55AB40108E56AB40103755E03E55A2C
:1005B500B40108E56AB40203755E04E55A64017086
:1005C5002FE56A640370298024E55AB40108E56AB9
:1005D500B40103755E03E55AB40108E56AB4020384
:1005E500755E04E55AB40108E56AB40303755E0552
:0105F50022E3
:100D0C00E552B56211E553B5630CE554B56407D2F1
:070D1C0000E4F55CF55D2227
:100C8E00E54EB4020C7569067B007A00795FFF8031
:100C9E000B7559067B007A00794FAF4E1207E8228A
:100CAE00E54EB4020C855E697B007A00795FFF80A9
:100CBE000B855E597B007A00794FAF4E1207E82202
:040E2D0000000000C1
:030BC900011A000E
:100BFC00C2A0051AE51AD394045002C322E4F51AD4
:100C0C00D2A07F03FE120E1120A00830A0FD20A060
:050C1C00FDD322C322FC
:100D230030A0FD7F057E00120E1130A00520A0FD2E
:040D3300D322C322E2
:100CCE00E4F529F52AF52AE52925E0F529120D2363
:0F0CDE00E4334229052AE52AC3940840EAAF29E6
:010CED0022E4
:0604F1008B218A22892301
:1004F700E4F52478257C00FD7BFF7A0E792DFE7FBD
:10050700041200DE120BFC5064120CCE8F25120C65
:10051700CE8F26120CCE8F27120CCE8F29120CCE1F
:10052700E525252625272528AB21AA22A9239000E2
:1005370008B5071CE52512015C900009E5261201A4
:100547005C900006E52712015C900007E528801AF9
:10055700745912015C900009746212015C900006E4
:0D056700745F12015C900007743B12015C90
:010574002264
:070E1B00C290C291C29222B5
:0208CB00A9077B
:1008CD00E4FBC29000D29000C29100C292007E0063
:1008DD007401A803088005C333CE33CED8F9FFE9E0
:1008ED00F582EF558224FF9292D29100C291000BB6
:1008FD00BB08DBE4FB7E007401A803088005C3334D
:10090D00CE33CED8F9FFEDF582EF558224FF9292CA
:0D091D00D29100C291000BBB08DBC290001C
:01092A0022AA
:02092B00AD0716
:10092D00E4F9FB430501C29000D29000C29100C2D0
:10093D0092007E007401A803088005C333CE33CE28
:10094D00D8F9FFEDF582EF558224FF9292C2910006
:10095D00D291000BBB08DBE4FBD29100C2910030B9
:10096D00920DA8037401088002C333D8FC42010B19
:0B097D00BB08E6C29000C29200AF0170
:01098800224C
:100184008B218A228923AC07E4FD7F8E1208CBECF5
:10019400700302022714604A14600302026CAB214C
:1001A400AA22A923120104FF120D37AD077F8C1276
:1001B40008CBAB21AA22A92390000112011DFF1232
:1001C4000D37AD077F881208CBAB21AA22A9239053
:1001D400000212011DFF120D37AD077F861208CBF6
:1001E4008041AB21AA22A923120104FF120D37ADCD
:1001F400077F8C1208CBAB21AA22A92390000112FD
:10020400011DFF120D37AD077F881208CBAB21AA61
:1002140022A92390000212011DFF120D37AD077FA2
:10022400868042AB21AA22A92390000312011DFF5C
:10023400120D37AD077F841208CBAB21AA22A92364
:1002440090000412011DFF120D37AD077F821208C2
:10025400CBAB21AA22A92390000512011DFF120D88
:0F02640037AD077F801208CB7D807F8E0208CBDD
:1005F6008B218A2289237F8C12092B120DB6AB21FF
:10060600AA22A923EF12014A7F8812092B120DB6DE
:10061600AB21AA22A923900001EF12015C7F86126A
:10062600092B120DB6AB21AA22A923900002EF12C4
:10063600015C7F8412092B120DB6AB21AA22A923D5
:10064600900003EF12015C7F8212092B120DB6ABEC
:1006560021AA22A923900004EF12015C7F801209CF
:100666002B120DB6AB21AA22A923900005EF020199
:010676005C27
:050BCC000308FFFFFF1C
:100C2100EF75F005A4240BF87601EF75F005A42407
:100C31000CF87601EF75F005A4240DF8A60308A6BB
:050C41000208A60122DB
:1009DD00E4F521F521E52175F005A4240BF8E6FFDA
:1009ED00E52175F005A4240CF8E6FE6F602BEE7082
:1009FD0012E52175F005A4240DF808E6FA08E6F9CC
:100A0D0012017EE52175F005A4240BF8E6FFE52122
:100A1D0075F005A4240CF8A6070521E521C3940360
:020A2D0040B3D4
:010A2F0022A4
:10098900E4FFA2A133FEEF14600B14600C24027083
:100999000DA2A18006A2A28002A2A3E433FE7408DC
:1009A9002FF8E625E04EFD74082FF8A60574082FE8
:1009B900F8E6FD700CEF75F005A4240BF8E4F68059
:1009C9000EEDB4FF0AEF75F005A4240BF876010FBC
:0309D900BF03B3A6
:0109DC0022F8
:060E22001209890209DD3E
:0F0DB600EFC4540F75F00AA4FEEF540F2EFF2266
:100D3700EF75F00A84C454F0FEEF75F00A84EE25CF
:030D4700F0FF2298
:0A0E1100EF1F70011E144E70F7224F
:100CEE00D3EF9400EE940040147D7D7C00ED1D70DA
:0D0CFE00011CED4C70F7EF1F70E61E80E347
:010D0B0022C5
:1003D3004175746F723A577568756166656E670A21
:1003E3004769743A66616D6572636F646572004153
:1003F3006C61726D20436C6F636B3A004572726F70
:1004030072202D2D2D3E0A202053756E466F756E7A
:100413006465720000401454000000000000546939
:100423006D653A78783A78783A7878000000000079
:100433000000446174653A78782F78782F787800D3
:100443000000000054656D703A78782E7878204368
:10045300000000000048756D693A78782E7878209E
:02046300250072
:030BD100011B0005
:100A7700C2A5C2A7C2037F33120C46C2037F32123C
:100A87000C46C2037F28120C46C2037F0C120C4689
:100A9700C2037F06120C46120DC57BFF7A0379D37A
:0D0AA700120AB47FB87E0B120CEE020DC5D2
:100C46008F4D120E2840FBA20392A60053800FE59B
:100C56004D54F04280120DFA53800FE54DC454F006
:050C66004280020DFABE
:040BD5008F478D4871
:100BD90078497C007D007BFF7A0479177E007F04C9
:100BE9001200DE74492547F8E625484480FFC20310
:030BF900020C46A5
:100AB4008B478A488949AB47AA48A949120104606F
:100AC40025B40A06C2037FC0800CAB47AA48A949D3
:100AD400120104FFD203120C4674012549F549E4BE
:060AE4003548F54880D002
:010AEA0022E9
:0E0DC500C2037F01120C467F057E00020CEE79
:0C0DFA00C2A700D2A70000C2A700002280
:040E2800C204A2045A
:010E2C0022A3
:0A0273008F258D268B278A28892904
:10027D00782A7C007D007BFF7A04791B7E007F0647
:10028D001200DE78307C007D007BFF7A0479217EC0
:10029D00007F0E1200DEAB27AA28A92990000312B9
:1002AD00011DFF75F00A84F52AEF75F00A8485F0BB
:1002BD002B90000412011DFF75F00A84F52CEF75CB
:1002CD00F00A8485F02D90000512011DFF75F00ACE
:1002DD0084F52EEF75F00A8485F02F90000A120137
:1002ED001DFFB4030675356E75366EEFB4040675D5
:1002FD00386E75396EEFB40506753B6E753C6E75CF
:10030D00430075440075453075460E7B007A0079C3
:08031D002AAD26AF2502085F9E
:0A0325008F258D268B278A28892951
:10032F00782A7C007D007BFF7A04792F7E007F0680
:10033F001200DE78307C007D007BFF7A0479357EF9
:10034F00007F0E1200DEAB27AA28A929120104FF95
:10035F0075F00A84F52AEF75F00A8485F02B90006A
:10036F000112011DFF75F00A84F52CEF75F00A8458
:10037F0085F02D90000212011DFF75F00A84F52EF5
:10038F00EF75F00A8485F02F90000A12011DFF709F
:10039F000675356E75366EEFB4010675386E7539A4
:1003AF006EEFB40206753B6E753C6E754300754477
:1003BF000075453075460E7B007A00792AAD26AF61
:0403CF002502085F9C
:0A06F6008F258D268B278A2889297D
:10070000782A7C007D007BFF7A0479437E007F0499
:100710001200DE782E7C007D007BFF7A0479477E14
:10072000007F0D1200DEAB27AA28A929900006122F
:10073000011DFF75F00A84F52AEF75F00A8485F033
:100740002B90000712011DFF75F00A84F52CEF7540
:10075000F00A8485F02D75430075440075452E75AB
:0F076000460D7B007A00792AAD26AF2502085F8F
:0A076F008F258D268B278A28892903
:10077900782A7C007D007BFF7A0479547E007F040F
:100789001200DE782E7C007D007BFF7A0479587E8A
:10079900007F0D1200DEAB27AA28A92990000812B4
:1007A900011DFF75F00A84F52AEF75F00A8485F0BA
:1007B9002B90000912011DFF75F00A84F52CEF75C5
:1007C900F00A8485F02D75430075440075452E7532
:0F07D900460D7B007A00792AAD26AF2502085F16
:0807E8008F218B228A23892452
:1007F000E51B6521600A120DC57F2C7E01120CEEEF
:1008000085211BE52114601514602B24027043AB75
:1008100022AA23A924E4FDFF1203258028AB22AAE3
:1008200023A924E4FDFF1206F6AB22AA23A924E49F
:10083000FD7F0102076FE4FDFF120BD57BFF7A03FA
:1008400079F2120AB4AB22AA23A924E4FD7F0102A3
:0E0850000273120DC57BFF7A0379FF120AB402
:01085E002277
:08085F008F3E8B408A41894263
:10086700E4FFFEEFC39546504DAB43AA44A9458F1D
:100877008275830012011DB4781DAB40AA41A942BD
:100887008E8275830012011D2430AB43AA44A9450B
:100897008F827583008018AB43AA44A9458F827560
:1008A700830012011DB46E0B8F82758300742012B2
:1008B700015C0E0F80ADAF3E120BD5AB43AA44A926
:0408C70045020AB428
:10047100020E06E493A3F8E493A34003F68001F28D
:1004810008DFF48029E493A3F85407240CC8C3338C
:10049100C4540F4420C8834004F456800146F6DF5B
:1004A100E4800B0102040810204080900BAEE47E32
:1004B100019360BCA3FF543F30E509541FFEE49350
:1004C100A360010ECF54C025E060A840B8E493A317
:1004D100FAE493A3F8E493A3C8C582C8CAC583CA42
:1004E100F0A3C8C582C8CAC583CADFE9DEE780BEFA
:010BD4000020
:10000E00E709F608DFFA8046E709F208DFFA803ED4
:10001E0088828C83E709F0A3DFFA8032E309F608C1
:10002E00DFFA8078E309F208DFFA807088828C8329
:10003E00E309F0A3DFFA806489828A83E0A3F608DD
:10004E00DFFA805889828A83E0A3F208DFFA804CB7
:10005E0080D280FA80C680D4806980F2803380108E
:10006E0080A680EA809A80A880DA80E280CA8033F7
:10007E0089828A83ECFAE493A3C8C582C8CCC5836F
:10008E00CCF0A3C8C582C8CCC583CCDFE9DEE7803F
:10009E000D89828A83E493A3F608DFF9ECFAA9F0BE
:1000AE00EDFB2289828A83ECFAE0A3C8C582C8CC14
:1000BE00C583CCF0A3C8C582C8CCC583CCDFEADE2D
:1000CE00E880DB89828A83E493A3F208DFF980CC8F
:1000DE0088F0EF60010E4E60C388F0ED2402B40488
:1000EE000050B9F582EB2402B4040050AF2323452F
:0600FE00822390005E73F6
:10010400BB010689828A83E0225002E722BBFE02F9
:09011400E32289828A83E493222C
:10011D00BB010CE58229F582E5833AF583E0225097
:10012D0006E92582F8E622BBFE06E92582F8E222E1
:0D013D00E58229F582E5833AF583E49322FB
:10014A00BB010689828A83F0225002F722BBFE0194
:02015A00F3228E
:10015C00F8BB010DE58229F582E5833AF583E8F0D9
:10016C00225006E92582C8F622BBFE05E92582C885
:02017C00F2226D
:06017E008A838982E4730C
:00000001FF
