:030000000205777F
:0C057700787FE4F6D8FD7581760205BEA1
:100C5700C102C101C10001670001760001680001FE
:0B0C67006900016A00016B06015C00DF
:0B0E6F00120C03308DFD12031880F8F8
:100C0300120C30120DB3120E84120B267BFF7A0BDB
:100C130079D0E4FF120CCA7BFF7A08790C7F0112AA
:0D0C23000CCA7BFF7A0B799A7F02020CCA83
:100C3000755D17755E04755F0A75601675612875B8
:100C40006232756319E4F564756541F566756F0D7B
:070C500075701975711E2279
:100D140030001F056A0569E569B46405E4F569B244
:100D2400A4AF6A7E00BE040ABFB007C200E4F56A3D
:030D3400F569223C
:10031800120E8B120D1412070A120D75E56B640686
:10032800702CF568FB7A00795D12078B7B007A00E8
:10033800795D120603E55C78227C007D007B00B4C1
:1003480002067A00796C80577A00795D80510568D9
:10035800E568C394325024E55C78217C007D007BFD
:1003680000B402067A00796C80047A00795D7E0018
:100378007F0A1200DE856B2B020687E568C394327C
:100388004029E56894645023E55C78227C007D0070
:100398007B00B402067A00796C80047A00795D7E6D
:0F03A800007F0A1200DEAF5C020273E4F56822E8
:100DB300758901758CEC758A78C28DD28CD2A9D2D3
:020DC300AF225D
:03000B00020003ED
:07000300758CEC758A783260
:0F0DC500D201055DE55DD394634003E4F55D2243
:0F0DD400D201055EE55ED3940C4003755E0122EB
:0F0DE300D201055FE55FD3941F4003755F0122C6
:0F0DF200D2020560E560D394174003E4F5602258
:0F0E0100D2020561E561D3943B4003E4F5612221
:0F0E1000D2020562E562D3943B4003E4F562220F
:0D0E3C00056FE56FD394174003E4F56F22B6
:0D0E49000570E570D3943B4003E4F5702282
:0D0E56000571E571D3943B4003E4F5712272
:100BD000E55C24FE601D240270280576E576D3943A
:100BE00003401F7576010567E567D394014013E460
:100BF000F567227567010576E576D39403400375A2
:030C000076012258
:10080C00E55C24FE605124027074E5677008E5769F
:10081C00B40103120DC5E5677008E576B402031246
:10082C000DD4E5677008E576B40303120DE3E567B4
:10083C00B40108E576B40103120DF2E567B40108C2
:10084C00E576B40203120E01E56764017030E576BB
:10085C006403702A020E10E567B40108E576B40152
:10086C0003120E3CE567B40108E576B40203120EE0
:0F087C0049E567B40108E576B40303120E56226E
:100B9A00055CE55CC394034003E4F55CE55C640131
:100BAA00701E30020BFB7A00795DFF120184C202CB
:100BBA0030010D7B007A00795D7F01120184C20148
:060BCA00E4F567F5762258
:10070A00756B06E55C24FE605024027073E5677021
:10071A0008E576B40103E4F56BE5677008E576B49D
:10072A000203756B01E5677008E576B40303756B20
:10073A0002E567B40108E576B40103756B03E56762
:10074A00B40108E576B40203756B04E567640170C9
:10075A002FE576640370298024E567B40108E576FD
:10076A00B40103756B03E567B40108E576B40203C7
:10077A00756B04E567B40108E576B40303756B0588
:01078A00224C
:100D7500E560B56F11E561B5700CE562B57107D237
:070D850000E4F569F56A22A4
:040E96000000000058
:030C7200011A0064
:100CA500C2A0051AE51AD394045002C322E4F51A2A
:100CB500D2A07F03FE120E7A20A00830A0FD20A04E
:050CC500FDD322C32253
:100D8C0030A0FD7F057E00120E7A30A00520A0FD5C
:040D9C00D322C32279
:100D3700E4F529F52AF52AE52925E0F529120D8C90
:0F0D4700E4334229052AE52AC3940840EAAF297C
:010D5600227A
:060603008B218A228923ED
:10060900E4F52478257C00FD7BFF7A0E7996FE7F40
:10061900041200DE120CA55064120D378F25120D3D
:10062900378F26120D378F27120D378F29120D3765
:10063900E525252625272528AB21AA22A9239000CF
:1006490008B5071CE52512015C900009E526120191
:100659005C900006E52712015C900007E528801AE6
:10066900745912015C900009746212015C900006D1
:0D067900745F12015C900007743B12015C7D
:010686002251
:070E8400C290C291C292224C
:0209C100A90784
:1009C300E4FBC29000D29000C29100C292007E006C
:1009D3007401A803088005C333CE33CED8F9FFE9E9
:1009E300F582EF558224FF9292D29100C291000BBF
:1009F300BB08DBE4FB7E007401A803088005C33356
:100A0300CE33CED8F9FFEDF582EF558224FF9292D3
:0D0A1300D29100C291000BBB08DBC2900025
:010A200022B3
:020A2100AD071F
:100A2300E4F9FB430501C29000D29000C29100C2D9
:100A330092007E007401A803088005C333CE33CE31
:100A4300D8F9FFEDF582EF558224FF9292C291000F
:100A5300D291000BBB08DBE4FBD29100C2910030C2
:100A6300920DA8037401088002C333D8FC42010B22
:0B0A7300BB08E6C29000C29200AF0179
:010A7E002255
:100184008B218A228923AC07E4FD7F8E1209C1ECFE
:10019400700302022714604A14600302026CAB214C
:1001A400AA22A923120104FF120DA0AD077F8C120D
:1001B40009C1AB21AA22A92390000112011DFF123B
:1001C4000DA0AD077F881209C1AB21AA22A92390F3
:1001D400000212011DFF120DA0AD077F861209C196
:1001E4008041AB21AA22A923120104FF120DA0AD64
:1001F400077F8C1209C1AB21AA22A9239000011206
:10020400011DFF120DA0AD077F881209C1AB21AA01
:1002140022A92390000212011DFF120DA0AD077F39
:10022400868042AB21AA22A92390000312011DFF5C
:10023400120DA0AD077F841209C1AB21AA22A92304
:1002440090000412011DFF120DA0AD077F82120958
:10025400C1AB21AA22A92390000512011DFF120D92
:0F026400A0AD077F801209C17D807F8E0209C186
:10078B008B218A2289237F8C120A21120E1FAB2107
:10079B00AA22A923EF12014A7F88120A21120E1FE7
:1007AB00AB21AA22A923900001EF12015C7F8612D4
:1007BB000A21120E1FAB21AA22A923900002EF12CD
:1007CB00015C7F84120A21120E1FAB21AA22A923DE
:1007DB00900003EF12015C7F82120A21120E1FABF5
:1007EB0021AA22A923900004EF12015C7F80120A38
:1007FB0021120E1FAB21AA22A923900005EF0201A3
:01080B005C90
:050C75000308FFFFFF72
:100CCA00EF75F005A4240BF87601EF75F005A4245E
:100CDA000CF87601EF75F005A4240DF8A60308A612
:050CEA000208A6012232
:100AD300E4F521F521E52175F005A4240BF8E6FFE3
:100AE300E52175F005A4240CF8E6FE6F602BEE708B
:100AF30012E52175F005A4240DF808E6FA08E6F9D5
:100B030012017EE52175F005A4240BF8E6FFE5212B
:100B130075F005A4240CF8A6070521E521C3940369
:020B230040B3DD
:010B250022AD
:100A7F00E4FFA2A133FEEF14600B14600C2402708C
:100A8F000DA2A18006A2A28002A2A3E433FE7408E5
:100A9F002FF8E625E04EFD74082FF8A60574082FF1
:100AAF00F8E6FD700CEF75F005A4240BF8E4F68062
:100ABF000EEDB4FF0AEF75F005A4240BF876010FC5
:030ACF00BF03B3AF
:010AD2002201
:060E8B00120A7F020AD3E7
:0F0E1F00EFC4540F75F00AA4FEEF540F2EFF22FC
:100DA000EF75F00A84C454F0FEEF75F00A84EE2566
:030DB000F0FF222F
:0A0E7A00EF1F70011E144E70F722E6
:100D5700D3EF9400EE940040147D7D7C00ED1D7070
:0D0D6700011CED4C70F7EF1F70E61E80E3DD
:010D7400225C
:1004E5004175746F723A577568756166656E670A0E
:1004F5004769743A66616D6572636F646572004140
:100505006C61726D20436C6F636B3A004572726F5C
:1005150072202D2D2D3E0A202053756E466F756E67
:100525006465720000401454000000000000546926
:100535006D653A78783A78783A7878000000000066
:100545000000446174653A78782F78782F787800C0
:100555000000000054656D703A78782E7878204355
:10056500000000000048756D693A78782E7878208B
:0205750025005F
:030C7A00011B005B
:100B2600C2A5C2A7C2037F33120CEFC2037F3212E3
:100B36000CEFC2037F28120CEFC2037F0C120CEFDE
:100B4600C2037F06120CEF120E2E7BFF7A0479E5A4
:0D0B5600120B637FB87E0B120D57020E2E9E
:100CEF008F5B120E9140FBA20392A60053800FE57B
:100CFF005B54F04280120E6353800FE55BC454F0D7
:050D0F004280020E63AA
:040C7E008F558D56AB
:100C820078577C007D007BFF7A0579297E007F04FE
:100C92001200DE74572555F8E625564480FFC2033C
:030CA200020CEF52
:100B63008B558A568957AB55AA56A957120104606B
:100B730025B40A06C2037FC0800CAB55AA56A957F9
:100B8300120104FFD203120CEF74012557F557E449
:060B93003556F55680D036
:010B99002239
:0E0E2E00C2037F01120CEF7F057E00020D57FC
:0C0E6300C2A700D2A70000C2A700002216
:040E9100C204A204F1
:010E9500223A
:0403B7008F2C8D2DCD
:1003BB0078387C007D007BFF7A05792D7E007F06E7
:1003CB001200DE783E7C007D007BFF7A0579337E60
:1003DB00007F0E1200DEE53175F00A84F538E53149
:1003EB0075F00A8485F039E53275F00A84F53AE543
:1003FB003275F00A8485F03BE53375F00A84F53CE1
:10040B00E53375F00A8485F03DE531B4FF0675439D
:10041B006E75446EE532B4FF0675466E75476EE534
:10042B0033B4FF0675496E754A6E755100755200EF
:10043B0075533E75540E7B007A007938AD2DAF2C79
:03044B0002088B19
:04044E008F2C8D2D35
:1004520078387C007D007BFF7A0579417E007F063B
:100462001200DE783E7C007D007BFF7A0579477EB4
:10047200007F0E1200DEE52E75F00A84F538E52EB7
:1004820075F00A8485F039E52F75F00A84F53AE5AE
:100492002F75F00A8485F03BE53075F00A84F53C4F
:1004A200E53075F00A8485F03DE52EB4FF0675430C
:1004B2006E75446EE52FB4FF0675466E75476EE5A0
:1004C20030B4FF0675496E754A6E7551007552005B
:1004D20075533E75540E7B007A007938AD2DAF2CE2
:0304E20002088B82
:0408F7008F2C8D2D88
:1008FB0078387C007D007BFF7A0579557E007F047C
:10090B001200DE783C7C007D007BFF7A0579597EF6
:10091B00007F0D1200DEE53475F00A84F538E534FE
:10092B0075F00A8485F039E53575F00A84F53AE5FA
:10093B003575F00A8485F03B75510075520075537F
:10094B003C75540D7B007A007938AD2DAF2C020825
:01095B008B10
:04095C008F2C8D2D22
:1009600078387C007D007BFF7A0579667E007F0405
:100970001200DE783C7C007D007BFF7A05796A7E80
:10098000007F0D1200DEE53675F00A84F538E53695
:1009900075F00A8485F039E53775F00A84F53AE593
:1009A0003775F00A8485F03B755100755200755318
:1009B0003C75540D7B007A007938AD2DAF2C0208C0
:0109C0008BAB
:020273008F21D9
:10027500E51B6521600A120E2E7F2C7E01120D579B
:1002850085211BE5211460221460522402707778C1
:100295002E7C007D007B007A0079227E007F0A1289
:1002A50000DEE4FDFF12044E8042782E7C007D00C6
:1002B5007B007A0079227E007F0A1200DEE4FDFFD2
:1002C5001208F7782E7C007D007B007A0079227E6B
:1002D500007F0A1200DEE4FD7F0102095CE4FDFFF8
:1002E500120C7E7BFF7A057904120B63782E7C0055
:1002F5007D007B007A0079227E007F0A1200DEE411
:10030500FD7F010203B7120E2E7BFF7A05791112CC
:020315000B6378
:0103170022C3
:10068700E52B14601514601714601914601B1460AF
:100697001D2405701C7521FF80177522FF801275B8
:1006A70023FF800D7524FF80087525FF80037526BD
:1006B700FFE52B600964016005E52BB40219782E6C
:1006C7007C007D007B007A0079217E007F0A120082
:1006D700DEE4FDFF02044EE52B6403600BE52B64AB
:1006E700046005E52BB4051A782E7C007D007B009D
:1006F7007A0079217E007F0A1200DEE4FD7F011275
:0307070003B72213
:08088B008F4C8B4E8A4F8950FF
:10089300E4FFFEEFC39554504DAB51AA52A9538FB9
:1008A3008275830012011DB4781DAB4EAA4FA95067
:1008B3008E8275830012011D2430AB51AA52A953B5
:1008C3008F827583008018AB51AA52A9538F82750A
:1008D300830012011DB46E0B8F8275830074201286
:1008E300015C0E0F80ADAF4C120C7EAB51AA52A926
:0408F30053020B633E
:10058300020E6FE493A3F8E493A34003F68001F211
:1005930008DFF48029E493A3F85407240CC8C33379
:1005A300C4540F4420C8834004F456800146F6DF48
:1005B300E4800B0102040810204080900C57E47E75
:1005C300019360BCA3FF543F30E509541FFEE4933D
:1005D300A360010ECF54C025E060A840B8E493A304
:1005E300FAE493A3F8E493A3C8C582C8CAC583CA2F
:1005F300F0A3C8C582C8CAC583CADFE9DEE780BEE7
:010C7D000076
:10000E00E709F608DFFA8046E709F208DFFA803ED4
:10001E0088828C83E709F0A3DFFA8032E309F608C1
:10002E00DFFA8078E309F208DFFA807088828C8329
:10003E00E309F0A3DFFA806489828A83E0A3F608DD
:10004E00DFFA805889828A83E0A3F208DFFA804CB7
:10005E0080D280FA80C680D4806980F2803380108E
:10006E0080A680EA809A80A880DA80E280CA8033F7
:10007E0089828A83ECFAE493A3C8C582C8CCC5836F
:10008E00CCF0A3C8C582C8CCC583CCDFE9DEE7803F
:10009E000D89828A83E493A3F608DFF9ECFAA9F0BE
:1000AE00EDFB2289828A83ECFAE0A3C8C582C8CC14
:1000BE00C583CCF0A3C8C582C8CCC583CCDFEADE2D
:1000CE00E880DB89828A83E493A3F208DFF980CC8F
:1000DE0088F0EF60010E4E60C388F0ED2402B40488
:1000EE000050B9F582EB2402B4040050AF2323452F
:0600FE00822390005E73F6
:10010400BB010689828A83E0225002E722BBFE02F9
:09011400E32289828A83E493222C
:10011D00BB010CE58229F582E5833AF583E0225097
:10012D0006E92582F8E622BBFE06E92582F8E222E1
:0D013D00E58229F582E5833AF583E49322FB
:10014A00BB010689828A83F0225002F722BBFE0194
:02015A00F3228E
:10015C00F8BB010DE58229F582E5833AF583E8F0D9
:10016C00225006E92582C8F622BBFE05E92582C885
:02017C00F2226D
:06017E008A838982E4730C
:00000001FF
