:030000000204DA1D
:0C04DA00787FE4F6D8FD758154020521FE
:070A8F00014A0002480000CB
:0B0AFD001208B7308DFD12097280F85E
:1008B700754B17754C04754D0A754E16754F28758F
:1008C7005032755119E4F552755341F554120AB572
:1008D700120B121208FE7BFF7A00790AE4FF120955
:1008E700F37BFF7A0B79287F011209F37BFF7A0AE2
:0708F70079E47F020209F31E
:10097200120B197B007A00794B12066F7B007A000A
:10098200794B1205EB7B007A00794BAF4A1206F0E5
:100992000549E54970020548646445487006F54812
:0409A200F549B2A4BD
:0109A600222E
:100AB500758901758CEC758A78C28DD28CD2A9D2D4
:020AC500AF225E
:03000B00020003ED
:07000300758CEC758A783260
:01000A0022D3
:010B280022AA
:0D0AE400054AE54AC394024003E4F54A22A6
:040B240000000000CD
:030A9600011D003F
:1009CE00C2A0051DE51DD394045002C322E4F51DFB
:1009DE00D2A07F03FE120B0820A00830A0FD20A09D
:0409EE00FDD322C350
:0109F20022E2
:100A7B0030A0FD7F057E00120B0830A00520A0FDE5
:040A8B00D322C3228D
:100A3D00E4F529F52AF52AE52925E0F529120A7BA1
:0F0A4D00E4334229052AE52AC3940840EAAF2979
:010A5C002277
:0605EB008B218A22892306
:1005F100E4F52478257C00FD7BFF7A0B7924FE7FCE
:10060100041200DE1209CE5064120A3D8F25120A2F
:100611003D8F26120A3D8F27120A3D8F29120A3D6E
:10062100E525252625272528AB21AA22A9239000E7
:1006310008B5071CE52512015C900009E5261201A9
:100641005C900006E52712015C900007E528801AFE
:10065100745912015C900009746212015C900006E9
:0D066100745F12015C900007743B12015C95
:01066E002269
:070B1200C290C291C29222C1
:02075200A907F5
:10075400E4FBC29000D29000C29100C292007E00DD
:100764007401A803088005C333CE33CED8F9FFE95A
:10077400F582EF558224FF9292D29100C291000B30
:10078400BB08DBE4FB7E007401A803088005C333C7
:10079400CE33CED8F9FFEDF582EF558224FF929245
:0D07A400D29100C291000BBB08DBC2900097
:0107B1002225
:0207B200AD0791
:1007B400E4F9FB430501C29000D29000C29100C24B
:1007C40092007E007401A803088005C333CE33CEA3
:1007D400D8F9FFEDF582EF558224FF9292C2910081
:1007E400D291000BBB08DBE4FBD29100C291003034
:1007F400920DA8037401088002C333D8FC42010B94
:0B080400BB08E6C29000C29200AF01EA
:01080F0022C6
:100184008B1A8A1B891CAC07E4FD7F8E120752EC84
:10019400700302022714604A14600302026CAB1A53
:1001A400AA1BA91C120104FF120AA2AD077F8C121C
:1001B4000752AB1AAA1BA91C90000112011DFF12C1
:1001C4000AA2AD077F88120752AB1AAA1BA91C907A
:1001D400000212011DFF120AA2AD077F8612075208
:1001E4008041AB1AAA1BA91C120104FF120AA2AD7A
:1001F400077F8C120752AB1AAA1BA91C900001128C
:10020400011DFF120AA2AD077F88120752AB1AAA7A
:100214001BA91C90000212011DFF120AA2AD077F48
:10022400868042AB1AAA1BA91C90000312011DFF71
:10023400120AA2AD077F84120752AB1AAA1BA91C8B
:1002440090000412011DFF120AA2AD077F8212075B
:1002540052AB1AAA1BA91C90000512011DFF120A19
:0F026400A2AD077F801207527D807F8E02075266
:10066F008B218A2289237F8C1207B2120AC7AB21F2
:10067F00AA22A923EF12014A7F881207B2120AC7D2
:10068F00AB21AA22A923900001EF12015C7F8612F1
:10069F0007B2120AC7AB21AA22A923900002EF12B8
:1006AF00015C7F841207B2120AC7AB21AA22A923C9
:1006BF00900003EF12015C7F821207B2120AC7ABE0
:1006CF0021AA22A923900004EF12015C7F80120758
:1006DF00B2120AC7AB21AA22A923900005EF02018B
:0106EF005CAE
:050A99000308FFFFFF50
:1009F300EF75F005A4240BF87601EF75F005A42438
:100A03000CF87601EF75F005A4240DF8A60308A6EB
:050A13000208A601220B
:10086400E4F521F521E52175F005A4240BF8E6FF54
:10087400E52175F005A4240CF8E6FE6F602BEE70FC
:1008840012E52175F005A4240DF808E6FA08E6F946
:1008940012017EE52175F005A4240BF8E6FFE5219D
:1008A40075F005A4240CF8A6070521E521C39403DB
:0208B40040B34F
:0108B600221F
:10081000E4FFA2A133FEEF14600B14600C240270FD
:100820000DA2A18006A2A28002A2A3E433FE740856
:100830002FF8E625E04EFD74082FF8A60574082F62
:10084000F8E6FD700CEF75F005A4240BF8E4F680D3
:100850000EEDB4FF0AEF75F005A4240BF876010F36
:03086000BF03B320
:010863002272
:060B19001208100208643E
:0F0AC700EFC4540F75F00AA4FEEF540F2EFF2258
:100AA200EF75F00A84C454F0FEEF75F00A84EE2567
:030AB200F0FF2230
:0A0B0800EF1F70011E144E70F7225B
:100A5D00D3EF9400EE940040147D7D7C00ED1D706D
:0D0A6D00011CED4C70F7EF1F70E61E80E3DA
:010A7A002259
:1005660057656C636F6D6520746F202D2D2D3E0AC7
:10057600202053756E466F756E6465720045727203
:100586006F72202D2D2D3E0A202053756E466F75F5
:100596006E646572000040145454696D653A78784B
:1005A6003A78783A787800000000000000446174D8
:1005B600653A323078782D78782D7878000000000A
:1005C60000000054656D703A78782E7878204300E4
:1005D6000000000048756D693A78782E78782025F5
:0505E600000000000010
:030A9E00011E0036
:1008FE00C2A5C2A7C2007F33120A18C2007F3212ED
:10090E000A18C2007F28120A18C2007F0C120A1899
:10091E00C2007F06120A18120AD67BFF7A05796684
:0D092E0012093B7FB87E0B120A5D020AD64B
:100A18008F47120B1F40FBA20092A60053800FE5E0
:100A28004754F04280120AF153800FE547C454F04E
:050A38004280020AF1FA
:0409A7008F418D42AD
:1009AB0078437C007D007BFF7A05799B7E007F047A
:1009BB001200DE74432541F8E625424480FFC20055
:0309CB00020A1805
:10093B008B418A428943AB41AA42A943120104600D
:10094B0025B40A06C2007FC0800CAB41AA42A94362
:10095B00120104FFD200120A1874012543F543E477
:06096B003542F54280D088
:010971002263
:0E0AD600C2007F01120A187F057E00020A5D31
:0C0AF100C2A700D2A70000C2A70000228C
:040B1F00C201A2016C
:010B230022AF
:0A0273008F258D268B278A28892904
:10027D00782A7C007D007BFF7A05799F7E007F0EBA
:10028D001200DEE4F53878397C00FD7BFF7A0579C4
:10029D00ADFE7F061200DEAB27AA28A92990000328
:1002AD0012011DFF75F00A84F539EF75F00A84858A
:1002BD00F03A90000412011DFF75F00A84F53BEF32
:1002CD0075F00A8485F03C90000512011DFF75F054
:1002DD000A84F53DEF75F00A8485F03EE4FF742A3B
:1002ED002FF8E6B4781174392538F8E62430FE7409
:1002FD002A2FF8A60605380FBF0EE3AD26AF25123F
:0B030D0009A77B007A00792A02093B57
:0A0318008F258D268B278A2889295E
:10032200782A7C007D007BFF7A0579B37E007F10FE
:100332001200DEE4F53A783B7C00FD7BFF7A05791A
:10034200C3FE7F061200DEAB27AA28A929120104E8
:10035200FF75F00A84F53BEF75F00A8485F03C9056
:10036200000112011DFF75F00A84F53DEF75F00AD8
:100372008485F03E90000212011DFF75F00A84F59B
:100382003FEF75F00A8485F040E4FF742A2FF8E607
:10039200B47811743B253AF8E62430FE742A2FF81B
:1003A200A606053A0FBF10E3AD26AF251209A77BBB
:0803B200007A00792A02093BE0
:0A03BA008F258D268B278A288929BC
:1003C400782A7C007D007BFF7A0579C97E007F0D49
:1003D4001200DEE4F53778387C00FD7BFF7A05797E
:1003E400D6FE7F041200DEAB27AA28A929900006B6
:1003F40012011DFF75F00A84F538EF75F00A848543
:10040400F03990000712011DFF75F00A84F53AEFE8
:1004140075F00A8485F03BE4FF742A2FF8E6B4787B
:100424001174382537F8E62430FE742A2FF8A6060E
:1004340005370FBF0DE3AD26AF251209A77B007A60
:0604440000792A02093BC9
:0A044A008F258D268B278A2889292B
:10045400782A7C007D007BFF7A0579DA7E007F0DA7
:100464001200DEE4F53778387C00FD7BFF7A0579ED
:10047400E7FE7F041200DEAB27AA28A92990000812
:1004840012011DFF75F00A84F538EF75F00A8485B2
:10049400F03990000912011DFF75F00A84F53AEF56
:1004A40075F00A8485F03BE4FF742A2FF8E6B478EB
:1004B4001174382537F8E62430FE742A2FF8A6067E
:1004C40005370FBF0DE3AD26AF251209A77B007AD0
:0604D40000792A02093B39
:0806F0008F218B228A2389244B
:1006F800E51E6521600A120AD67FF47E01120A5DA2
:1007080085211EE52114601C047032AB22AA23A99E
:1007180024E4FDFF120273AB22AA23A924E4FD7F7F
:1007280001020318AB22AA23A924E4FDFF1203BA8D
:10073800AB22AA23A924E4FD7F0102044A120AD6A7
:090748007BFF7A05798312093B5D
:010751002285
:1004E600020AFDE493A3F8E493A34003F68001F225
:1004F60008DFF48029E493A3F85407240CC8C33317
:10050600C4540F4420C8834004F456800146F6DFE5
:10051600E4800B0102040810204080900A8FE47EDC
:10052600019360BCA3FF543F30E509541FFEE493DA
:10053600A360010ECF54C025E060A840B8E493A3A1
:10054600FAE493A3F8E493A3C8C582C8CAC583CACC
:10055600F0A3C8C582C8CAC583CADFE9DEE780BE84
:010AA1000054
:10000E00E709F608DFFA8046E709F208DFFA803ED4
:10001E0088828C83E709F0A3DFFA8032E309F608C1
:10002E00DFFA8078E309F208DFFA807088828C8329
:10003E00E309F0A3DFFA806489828A83E0A3F608DD
:10004E00DFFA805889828A83E0A3F208DFFA804CB7
:10005E0080D280FA80C680D4806980F2803380108E
:10006E0080A680EA809A80A880DA80E280CA8033F7
:10007E0089828A83ECFAE493A3C8C582C8CCC5836F
:10008E00CCF0A3C8C582C8CCC583CCDFE9DEE7803F
:10009E000D89828A83E493A3F608DFF9ECFAA9F0BE
:1000AE00EDFB2289828A83ECFAE0A3C8C582C8CC14
:1000BE00C583CCF0A3C8C582C8CCC583CCDFEADE2D
:1000CE00E880DB89828A83E493A3F208DFF980CC8F
:1000DE0088F0EF60010E4E60C388F0ED2402B40488
:1000EE000050B9F582EB2402B4040050AF2323452F
:0600FE00822390005E73F6
:10010400BB010689828A83E0225002E722BBFE02F9
:09011400E32289828A83E493222C
:10011D00BB010CE58229F582E5833AF583E0225097
:10012D0006E92582F8E622BBFE06E92582F8E222E1
:0D013D00E58229F582E5833AF583E49322FB
:10014A00BB010689828A83F0225002F722BBFE0194
:02015A00F3228E
:10015C00F8BB010DE58229F582E5833AF583E8F0D9
:10016C00225006E92582C8F622BBFE05E92582C885
:02017C00F2226D
:06017E008A838982E4730C
:00000001FF
