:030000000204DA1D
:0C04DA00787FE4F6D8FD758175020521DD
:100C6600C101C1000167000175000168000169004A
:060C7600016A06015C00AA
:0B0DF700120BA3308DFD1207EF80F8F7
:100BA300120CA8120D28120E0C120AF97BFF7A0CF4
:100BB30079E4E4FF120C1C7BFF7A0779707F011242
:0D0BC3000C1C7BFF7A0B796D7F02020C1C6D
:100CA800755D17755E04755F0A7560167561287540
:0E0CB8006232756319E4F564756541F56622D4
:0D0DDE000569E569B46405E4F569B2A42275
:1007EF00120E13120DDE12066DE56A64067015F512
:1007FF0068FB7A00795D1206EF7B007A00795D1253
:10080F000566802F0568E568C39432501978217CFE
:10081F00007D007B007A00795D7E007F0A1200DE8A
:10082F00856A2B0205EAE568C39432401EE5689499
:10083F0064501878227C007D007B007A00795D7E01
:0F084F00007F0A1200DEAF5C020273E4F568223C
:100D2800758901758CEC758A78C28DD28CD2A9D25E
:020D3800AF22E8
:03000B00020003ED
:07000300758CEC758A783260
:0F0D3A00D200055DE55DD394634003E4F55D22CF
:0F0D4900D200055EE55ED3940C4003755E012277
:0F0D5800D200055FE55FD3941F4003755F012252
:0F0D6700D2010560E560D394174003E4F56022E4
:0F0D7600D2010561E561D3943B4003E4F56122AE
:0F0D8500D2010562E562D3943B4003E4F562229C
:0F0D9400D201056EE56ED394174003E4F56E228D
:0F0DA300D201056FE56FD3943B4003E4F56F2257
:0F0DB200D2010570E570D3943B4003E4F5702245
:100CE400E55C70180575E575D39403400F757501BF
:0D0CF4000567E567D394014003E4F567222E
:10077000E55C24FE605124027074E5677008E5753D
:10078000B40103120D3AE5677008E575B40203126F
:100790000D49E5677008E575B40303120D58E56768
:1007A000B40108E575B40103120D67E567B40108EB
:1007B000E575B40203120D76E56764017030E575E6
:1007C0006403702A020D85E567B40108E575B4017C
:1007D00003120D94E567B40108E575B40203120D28
:0F07E000A3E567B40108E575B40303120DB22257
:100B6D00055CE55CC394034003E4F55CE55C64015E
:100B7D00701E30010BFB7A00795DFF120184C201FA
:100B8D0030000D7B007A00795D7F01120184C20077
:060B9D00E4F567F5752286
:10066D00E55C24FE605024027074E5677008E57542
:10067D00B40103E4F56AE5677008E575B402037526
:10068D006A01E5677008E575B40303756A02E567ED
:10069D00B40108E575B40103756A03E567B4010893
:1006AD00E575B40203756A04E56764017033E57599
:1006BD006403702D8024E567B40108E575B401036A
:1006CD00756A03E567B40108E575B40203756A043C
:1006DD00E567B4010CE575B40307756A0522756A03
:0206ED000622E3
:040E1E0000000000D0
:030C7C00011A005A
:100BF700C2A0051AE51AD394045002C322E4F51AD9
:100C0700D2A07F03FE120E0220A00830A0FD20A074
:050C1700FDD322C32201
:100D010030A0FD7F057E00120E0230A00520A0FD5F
:040D1100D322C32204
:100C8800E4F529F52AF52AE52925E0F529120D01CB
:0F0C9800E4334229052AE52AC3940840EAAF292C
:010CA700222A
:060566008B218A2289238B
:10056C00E4F52478257C00FD7BFF7A0E791EFE7F56
:10057C00041200DE120BF75064120C888F25120C3B
:10058C00888F26120C888F27120C888F29120C88C2
:10059C00E525252625272528AB21AA22A92390006D
:1005AC0008B5071CE52512015C900009E52612012F
:1005BC005C900006E52712015C900007E528801A84
:1005CC00745912015C900009746212015C9000066F
:0D05DC00745F12015C900007743B12015C1B
:0105E90022EF
:070E0C00C290C291C29222C4
:02099400A907B1
:10099600E4FBC29000D29000C29100C292007E0099
:1009A6007401A803088005C333CE33CED8F9FFE916
:1009B600F582EF558224FF9292D29100C291000BEC
:1009C600BB08DBE4FB7E007401A803088005C33383
:1009D600CE33CED8F9FFEDF582EF558224FF929201
:0D09E600D29100C291000BBB08DBC2900053
:0109F30022E1
:0209F400AD074D
:1009F600E4F9FB430501C29000D29000C29100C207
:100A060092007E007401A803088005C333CE33CE5E
:100A1600D8F9FFEDF582EF558224FF9292C291003C
:100A2600D291000BBB08DBE4FBD29100C2910030EF
:100A3600920DA8037401088002C333D8FC42010B4F
:0B0A4600BB08E6C29000C29200AF01A6
:010A51002282
:100184008B218A228923AC07E4FD7F8E120994EC2B
:10019400700302022714604A14600302026CAB214C
:1001A400AA22A923120104FF120D15AD077F8C1298
:1001B4000994AB21AA22A92390000112011DFF1268
:1001C4000D15AD077F88120994AB21AA22A92390AB
:1001D400000212011DFF120D15AD077F861209944E
:1001E4008041AB21AA22A923120104FF120D15ADEF
:1001F400077F8C120994AB21AA22A9239000011233
:10020400011DFF120D15AD077F88120994AB21AAB9
:1002140022A92390000212011DFF120D15AD077FC4
:10022400868042AB21AA22A92390000312011DFF5C
:10023400120D15AD077F84120994AB21AA22A923BC
:1002440090000412011DFF120D15AD077F821209E3
:1002540094AB21AA22A92390000512011DFF120DBF
:0F02640015AD077F801209947D807F8E0209946B
:1006EF008B218A2289237F8C1209F4120DC1AB2131
:1006FF00AA22A923EF12014A7F881209F4120DC111
:10070F00AB21AA22A923900001EF12015C7F861270
:10071F0009F4120DC1AB21AA22A923900002EF12F6
:10072F00015C7F841209F4120DC1AB21AA22A92307
:10073F00900003EF12015C7F821209F4120DC1AB1E
:10074F0021AA22A923900004EF12015C7F801209D5
:10075F00F4120DC1AB21AA22A923900005EF0201CB
:01076F005C2D
:050C7F000308FFFFFF68
:100C1C00EF75F005A4240BF87601EF75F005A4240C
:100C2C000CF87601EF75F005A4240DF8A60308A6C0
:050C3C000208A60122E0
:100AA600E4F521F521E52175F005A4240BF8E6FF10
:100AB600E52175F005A4240CF8E6FE6F602BEE70B8
:100AC60012E52175F005A4240DF808E6FA08E6F902
:100AD60012017EE52175F005A4240BF8E6FFE52159
:100AE60075F005A4240CF8A6070521E521C3940397
:020AF60040B30B
:010AF80022DB
:100A5200E4FFA2A133FEEF14600B14600C240270B9
:100A62000DA2A18006A2A28002A2A3E433FE740812
:100A72002FF8E625E04EFD74082FF8A60574082F1E
:100A8200F8E6FD700CEF75F005A4240BF8E4F6808F
:100A92000EEDB4FF0AEF75F005A4240BF876010FF2
:030AA200BF03B3DC
:010AA500222E
:060E1300120A52020AA6B9
:0F0DC100EFC4540F75F00AA4FEEF540F2EFF225B
:100D1500EF75F00A84C454F0FEEF75F00A84EE25F1
:030D2500F0FF22BA
:0A0E0200EF1F70011E144E70F7225E
:100CC600D3EF9400EE940040147D7D7C00ED1D7002
:0D0CD600011CED4C70F7EF1F70E61E80E36F
:010CE30022EE
:100446004175746F723A577568756166656E670AAD
:100456004769743A66616D6572636F6465720053CD
:10046600657474696E6720436C6F636B3A004572FE
:10047600726F72202D2D2D3E0A202053756E466F09
:10048600756E6465720000401454000000000000A0
:1004960054696D653A78783A78783A787800000049
:1004A60000000000446174653A78782F78782F78D8
:1004B60078000000000054656D703A78782E7878E0
:1004C6002043000000000048756D693A78782E7860
:0404D6007820250065
:030C8400011B0051
:100AF900C2A5C2A7C2027F33120C41C2027F3212C1
:100B09000C41C2027F28120C41C2027F0C120C4117
:100B1900C2027F06120C41120DD07BFF7A0479467E
:0D0B2900120B367FB87E0B120CC6020DD0E9
:100C41008F5B120E1940FBA20292A60053800FE5A2
:100C51005B54F04280120DEB53800FE55BC454F0FE
:050C61004280020DEBD2
:040BD0008F558D565A
:100BD40078577C007D007BFF7A04798C7E007F044B
:100BE4001200DE74572555F8E625564480FFC202EC
:030BF400020C41AF
:100B36008B558A568957AB55AA56A9571201046098
:100B460025B40A06C2027FC0800CAB55AA56A95727
:100B5600120104FFD202120C4174012557F557E425
:060B66003556F55680D063
:010B6C002266
:0E0DD000C2027F01120C417F057E00020CC69C
:0C0DEB00C2A700D2A70000C2A70000228F
:040E1900C203A2036B
:010E1D0022B2
:040318008F2C8D2D6C
:10031C0078387C007D007BFF7A0479907E007F0624
:10032C001200DE783E7C007D007BFF7A0479967E9D
:10033C00007F0E1200DEE53175F00A84F538E531E8
:10034C0075F00A8485F039E53275F00A84F53AE5E2
:10035C003275F00A8485F03BE53375F00A84F53C80
:10036C00E53375F00A8485F03DE531B4FF0675433D
:10037C006E75446EE532B4FF0675466E75476EE5D4
:10038C0033B4FF0675496E754A6E7551007552008F
:10039C0075533E75540E7B007A007938AD2DAF2C19
:0303AC0002085EE6
:0403AF008F2C8D2DD5
:1003B30078387C007D007BFF7A0479A47E007F0679
:1003C3001200DE783E7C007D007BFF7A0479AA7EF2
:1003D300007F0E1200DEE52E75F00A84F538E52E57
:1003E30075F00A8485F039E52F75F00A84F53AE54E
:1003F3002F75F00A8485F03BE53075F00A84F53CEF
:10040300E53075F00A8485F03DE52EB4FF067543AB
:100413006E75446EE52FB4FF0675466E75476EE53F
:1004230030B4FF0675496E754A6E755100755200FA
:1004330075533E75540E7B007A007938AD2DAF2C81
:0304430002085E4E
:0408CA008F2C8D2DB5
:1008CE0078387C007D007BFF7A0479B87E007F0447
:1008DE001200DE783C7C007D007BFF7A0479BC7EC2
:1008EE00007F0D1200DEE53475F00A84F538E5342C
:1008FE0075F00A8485F039E53575F00A84F53AE528
:10090E003575F00A8485F03B7551007552007553AC
:10091E003C75540D7B007A007938AD2DAF2C020852
:01092E005E6A
:04092F008F2C8D2D4F
:1009330078387C007D007BFF7A0479C97E007F04D0
:100943001200DE783C7C007D007BFF7A0479CD7E4B
:10095300007F0D1200DEE53675F00A84F538E536C2
:1009630075F00A8485F039E53775F00A84F53AE5C0
:100973003775F00A8485F03B755100755200755345
:100983003C75540D7B007A007938AD2DAF2C0208ED
:010993005E05
:020273008F21D9
:10027500E51B6521600A120DD07F2C7E01120CC68C
:1002850085211BE5211460221460522402707778C1
:100295002E7C007D007B007A0079227E007F0A1289
:1002A50000DEE4FDFF1203AF8042782E7C007D0066
:1002B5007B007A0079227E007F0A1200DEE4FDFFD2
:1002C5001208CA782E7C007D007B007A0079227E98
:1002D500007F0A1200DEE4FD7F0102092FE4FDFF25
:1002E500120BD07BFF7A047965120B36782E7C00D1
:1002F5007D007B007A0079227E007F0A1200DEE411
:10030500FD7F01020318120DD07BFF7A0479741268
:020315000B36A5
:0103170022C3
:1005EA00E52B14601514601714601914601B14604D
:1005FA001D2405701C7521FF80177522FF80127556
:10060A0023FF800D7524FF80087525FF800375265A
:10061A00FFE52B600964016005E52BB40219782E09
:10062A007C007D007B007A0079217E007F0A12001F
:10063A00DEE4FDFF0203AFE52B6403600BE52B64E8
:10064A00046005E52BB4051A782E7C007D007B003A
:10065A007A0079217E007F0A1200DEE4FD7F011212
:03066A0003182250
:08085E008F4C8B4E8A4F89502C
:10086600E4FFFEEFC39554504DAB51AA52A9538FE6
:100876008275830012011DB4781DAB4EAA4FA95094
:100886008E8275830012011D2430AB51AA52A953E2
:100896008F827583008018AB51AA52A9538F827537
:1008A600830012011DB46E0B8F82758300742012B3
:1008B600015C0E0F80ADAF4C120BD0AB51AA52A902
:0408C60053020B3698
:1004E600020DF7E493A3F8E493A34003F68001F228
:1004F60008DFF48029E493A3F85407240CC8C33317
:10050600C4540F4420C8834004F456800146F6DFE5
:10051600E4800B0102040810204080900C66E47E03
:10052600019360BCA3FF543F30E509541FFEE493DA
:10053600A360010ECF54C025E060A840B8E493A3A1
:10054600FAE493A3F8E493A3C8C582C8CAC583CACC
:10055600F0A3C8C582C8CAC583CADFE9DEE780BE84
:010C8700006C
:10000E00E709F608DFFA8046E709F208DFFA803ED4
:10001E0088828C83E709F0A3DFFA8032E309F608C1
:10002E00DFFA8078E309F208DFFA807088828C8329
:10003E00E309F0A3DFFA806489828A83E0A3F608DD
:10004E00DFFA805889828A83E0A3F208DFFA804CB7
:10005E0080D280FA80C680D4806980F2803380108E
:10006E0080A680EA809A80A880DA80E280CA8033F7
:10007E0089828A83ECFAE493A3C8C582C8CCC5836F
:10008E00CCF0A3C8C582C8CCC583CCDFE9DEE7803F
:10009E000D89828A83E493A3F608DFF9ECFAA9F0BE
:1000AE00EDFB2289828A83ECFAE0A3C8C582C8CC14
:1000BE00C583CCF0A3C8C582C8CCC583CCDFEADE2D
:1000CE00E880DB89828A83E493A3F208DFF980CC8F
:1000DE0088F0EF60010E4E60C388F0ED2402B40488
:1000EE000050B9F582EB2402B4040050AF2323452F
:0600FE00822390005E73F6
:10010400BB010689828A83E0225002E722BBFE02F9
:09011400E32289828A83E493222C
:10011D00BB010CE58229F582E5833AF583E0225097
:10012D0006E92582F8E622BBFE06E92582F8E222E1
:0D013D00E58229F582E5833AF583E49322FB
:10014A00BB010689828A83F0225002F722BBFE0194
:02015A00F3228E
:10015C00F8BB010DE58229F582E5833AF583E8F0D9
:10016C00225006E92582C8F622BBFE05E92582C885
:02017C00F2226D
:06017E008A838982E4730C
:00000001FF
