:030000000204DA1D
:0C04DA00787FE4F6D8FD75815A020521F8
:1009E700010A00011F00011E000115000117FF0683
:0E09F70018050608090B0C0116000208000086
:0B0BD5001208B9308DFD12097880F87D
:1008B900750B17750C04750D0A750E16750F2875CD
:1008C9001032751119E4F512751341F514120B8CD8
:1008D900120BEA12093F7BFF7A0A7914E4FF120B23
:1008E900027BFF7A0A79B77F01120B027BFF7A0933
:0708F90079007F02020B02EF
:10097800120BF8E517B4FF097B007A00790B120611
:100988006D7B007A00790B1205667B007A00790B83
:10099800AF0A1206EE0509E5097002050864644508
:0709A800087004F508F509D1
:0109AF002225
:100B8C00758901758CEC758A78C28DD28CD2A9D2FC
:020B9C00AF2286
:03000B00020003ED
:07000300758CEC758A783260
:100A1400E50A70260517C3E51764809486400FE441
:100A2400F5170515E515D394014003E4F51574187D
:0B0A34002517F8E6FDAF15120BBB22E2
:100AB700E515701CE517701D0516E516C3940A4069
:100AC70003E4F516AB167D05E4FF120A68B2A4220B
:060AD700E515B401002248
:10090000050AE50AC394024003E4F50AE50A640116
:100910007024E51F600E7B007A00790BE4FF120162
:1009200084E4F51FE51E600E7B007A00790B7F01E1
:0F093000120184E4F51EE4F5157517FF020BF1B3
:040C030000000000ED
:030A0500015A0093
:100ADD00C2A0055AE55AD394045002C322E4F55A34
:100AED00D2A07F03FE120BE020A00830A0FD20A0B5
:040AFD00FDD322C340
:010B010022D1
:100B650030A0FD7F057E00120BE030A00520A0FD22
:040B7500D322C322A2
:100B2700E4F529F52AF52AE52925E0F529120B65CB
:0F0B3700E4334229052AE52AC3940840EAAF298E
:010B4600228C
:060566008B218A2289238B
:10056C00E4F52478257C00FD7BFF7A0C7903FE7F73
:10057C00041200DE120ADD5064120B278F25120BB9
:10058C00278F26120B278F27120B278F29120B2749
:10059C00E525252625272528AB21AA22A92390006D
:1005AC0008B5071CE52512015C900009E52612012F
:1005BC005C900006E52712015C900007E528801A84
:1005CC00745912015C900009746212015C9000066F
:0D05DC00745F12015C900007743B12015C1B
:0105E90022EF
:070BEA00C290C291C29222E9
:02075400A907F3
:10075600E4FBC29000D29000C29100C292007E00DB
:100766007401A803088005C333CE33CED8F9FFE958
:10077600F582EF558224FF9292D29100C291000B2E
:10078600BB08DBE4FB7E007401A803088005C333C5
:10079600CE33CED8F9FFEDF582EF558224FF929243
:0D07A600D29100C291000BBB08DBC2900095
:0107B3002223
:0207B400AD078F
:1007B600E4F9FB430501C29000D29000C29100C249
:1007C60092007E007401A803088005C333CE33CEA1
:1007D600D8F9FFEDF582EF558224FF9292C291007F
:1007E600D291000BBB08DBE4FBD29100C291003032
:1007F600920DA8037401088002C333D8FC42010B92
:0B080600BB08E6C29000C29200AF01E8
:0108110022C4
:100184008B218A228923AC07E4FD7F8E120754EC6D
:10019400700302022714604A14600302026CAB214C
:1001A400AA22A923120104FF120B79AD077F8C1236
:1001B4000754AB21AA22A92390000112011DFF12AA
:1001C4000B79AD077F88120754AB21AA22A923908B
:1001D400000212011DFF120B79AD077F861207542E
:1001E4008041AB21AA22A923120104FF120B79AD8D
:1001F400077F8C120754AB21AA22A9239000011275
:10020400011DFF120B79AD077F88120754AB21AA99
:1002140022A92390000212011DFF120B79AD077F62
:10022400868042AB21AA22A92390000312011DFF5C
:10023400120B79AD077F84120754AB21AA22A9239C
:1002440090000412011DFF120B79AD077F82120783
:1002540054AB21AA22A92390000512011DFF120B01
:0F02640079AD077F801207547D807F8E0207548B
:10066D008B218A2289237F8C1207B4120B9EAB211A
:10067D00AA22A923EF12014A7F881207B4120B9EFA
:10068D00AB21AA22A923900001EF12015C7F8612F3
:10069D0007B4120B9EAB21AA22A923900002EF12E0
:1006AD00015C7F841207B4120B9EAB21AA22A923F1
:1006BD00900003EF12015C7F821207B4120B9EAB08
:1006CD0021AA22A923900004EF12015C7F8012075A
:1006DD00B4120B9EAB21AA22A923900005EF0201B3
:0106ED005CB0
:050A08000346FFFFFFA3
:100B0200EF75F005A42449F87601EF75F005A424E9
:100B12004AF87601EF75F005A4244BF8A60308A65F
:050B22000208A60122FB
:10086600E4F521F521E52175F005A42449F8E6FF14
:10087600E52175F005A4244AF8E6FE6F602BEE70BC
:1008860012E52175F005A4244BF808E6FA08E6F906
:1008960012017EE52175F005A42449F8E6FFE5215D
:1008A60075F005A4244AF8A6070521E521C394039B
:0208B60040B34D
:0108B800221D
:10081200E4FFA2A133FEEF14600B14600C240270FB
:100822000DA2A18006A2A28002A2A3E433FE744616
:100832002FF8E625E04EFD74462FF8A60574462FE4
:10084200F8E6FD700CEF75F005A42449F8E4F68093
:100852000EEDB4FF0AEF75F005A42449F876010FF6
:03086200BF03B31E
:010865002270
:060BF8001208120208665B
:0F0B9E00EFC4540F75F00AA4FEEF540F2EFF2280
:100B7900EF75F00A84C454F0FEEF75F00A84EE258F
:030B8900F0FF2258
:0A0BE000EF1F70011E144E70F72283
:100B4700D3EF9400EE940040147D7D7C00ED1D7082
:0D0B5700011CED4C70F7EF1F70E61E80E3EF
:010B6400226E
:1005EA0057656C636F6D6520746F202D2D2D3E0A43
:1005FA00202053756E466F756E646572004572727F
:10060A006F72202D2D2D3E0A202053756E466F7570
:10061A006E646572000040145454696D653A7878C6
:10062A003A78783A78780000000000000044617453
:10063A00653A78782F78782F7878000000000000E3
:10064A000054656D703A78782E787820430000005F
:10065A00000048756D693A78782E78782025000070
:03066A000000008D
:060A0D0001590001580030
:10093F00C2A5C2A7C2007F33120A43C2007F321280
:10094F000A43C2007F28120A43120A3FC2007F06E1
:10095F00120A43120BAD7BFF7A0579EA1209B07FB9
:09096F00B87E0B120B47020BAD20
:040A3F00C2007F0C66
:100A43008F45120BFE40FBA20092A60053800FE5D8
:100A53004554F04280120BC953800FE545C454F04E
:050A63004280020BC9F6
:040A90008F3F8D40C7
:100A940078417C007D007BFF7A06791F7E007F040D
:100AA4001200DE7441253FF8E625404480FFC20071
:030AB400020A43F0
:1009B0008B3F8A408941AB3FAA40A94112010460A4
:1009C00025B40A06C2007FC0800CAB3FAA40A941F3
:1009D000120104FFD200120A4374012541F541E4DB
:0609E0003540F54080D017
:0109E60022EE
:0E0BAD00C2007F01120A437F057E00020B4743
:0C0BC900C2A700D2A70000C2A7000022B3
:040BFE00C201A2018D
:010C020022CF
:0A0273008F258D268B278A28892904
:10027D00782A7C007D007BFF7A0679237E007F0E35
:10028D001200DEE4F53878397C00FD7BFF7A0679C3
:10029D0031FE7F061200DEAB27AA28A929900003A4
:1002AD0012011DFF75F00A84F539EF75F00A84858A
:1002BD00F03A90000412011DFF75F00A84F53BEF32
:1002CD0075F00A8485F03C90000512011DFF75F054
:1002DD000A84F53DEF75F00A8485F03EE4FF742A3B
:1002ED002FF8E6B4781174392538F8E62430FE7409
:1002FD002A2FF8A60605380FBF0EE3AD26AF25123F
:0B030D000A907B007A00792A0209B0F8
:0A0318008F258D268B278A2889295E
:10032200782A7C007D007BFF7A0679377E007F0E7B
:100332001200DEE4F53878397C00FD7BFF7A06791D
:1003420045FE7F061200DEAB27AA28A92912010466
:10035200FF75F00A84F539EF75F00A8485F03A905A
:10036200000112011DFF75F00A84F53BEF75F00ADA
:100372008485F03C90000212011DFF75F00A84F59D
:100382003DEF75F00A8485F03EE4FF742A2FF8E60B
:10039200B4781174392538F8E62430FE742A2FF81F
:1003A200A60605380FBF0EE3AD26AF25120A907BD5
:0803B200007A00792A0209B06B
:0A03BA008F258D268B278A288929BC
:1003C400782A7C007D007BFF7A06794B7E007F0DC6
:1003D4001200DEE4F53778387C00FD7BFF7A06797D
:1003E40058FE7F041200DEAB27AA28A92990000634
:1003F40012011DFF75F00A84F538EF75F00A848543
:10040400F03990000712011DFF75F00A84F53AEFE8
:1004140075F00A8485F03BE4FF742A2FF8E6B4787B
:100424001174382537F8E62430FE742A2FF8A6060E
:1004340005370FBF0DE3AD26AF25120A907B007A76
:0604440000792A0209B054
:0A044A008F258D268B278A2889292B
:10045400782A7C007D007BFF7A06795C7E007F0D24
:100464001200DEE4F53778387C00FD7BFF7A0679EC
:1004740069FE7F041200DEAB27AA28A92990000890
:1004840012011DFF75F00A84F538EF75F00A8485B2
:10049400F03990000912011DFF75F00A84F53AEF56
:1004A40075F00A8485F03BE4FF742A2FF8E6B478EB
:1004B4001174382537F8E62430FE742A2FF8A6067E
:1004C40005370FBF0DE3AD26AF25120A907B007AE6
:0604D40000792A0209B0C4
:0806EE008F218B228A2389244D
:1006F600E5597059E5586521600A120BAD7FF47E05
:1007060001120B47852158E52114601C047032AB99
:1007160022AA23A924E4FD7F01120273AB22AA2395
:10072600A924E4FDFF020318AB22AA23A924E4FDB1
:10073600FF1203BAAB22AA23A924E4FD7F01020417
:0D0746004A120BAD7BFF7A0679071209B04D
:010753002283
:0E0BBB00120A90C2007F0F120A4375590122E0
:070BF100120A3FE4F559224E
:100A68008F218D22E521600100E522600100EB2441
:100A780030FFD200120A43120A3FAD22AF21120AF8
:080A880090C2007F0F020A4337
:1004E600020BD5E493A3F8E493A34003F68001F24C
:1004F60008DFF48029E493A3F85407240CC8C33317
:10050600C4540F4420C8834004F456800146F6DFE5
:10051600E4800B01020408102040809009E7E47E85
:10052600019360BCA3FF543F30E509541FFEE493DA
:10053600A360010ECF54C025E060A840B8E493A3A1
:10054600FAE493A3F8E493A3C8C582C8CAC583CACC
:10055600F0A3C8C582C8CAC583CADFE9DEE780BE84
:010A130000E2
:10000E00E709F608DFFA8046E709F208DFFA803ED4
:10001E0088828C83E709F0A3DFFA8032E309F608C1
:10002E00DFFA8078E309F208DFFA807088828C8329
:10003E00E309F0A3DFFA806489828A83E0A3F608DD
:10004E00DFFA805889828A83E0A3F208DFFA804CB7
:10005E0080D280FA80C680D4806980F2803380108E
:10006E0080A680EA809A80A880DA80E280CA8033F7
:10007E0089828A83ECFAE493A3C8C582C8CCC5836F
:10008E00CCF0A3C8C582C8CCC583CCDFE9DEE7803F
:10009E000D89828A83E493A3F608DFF9ECFAA9F0BE
:1000AE00EDFB2289828A83ECFAE0A3C8C582C8CC14
:1000BE00C583CCF0A3C8C582C8CCC583CCDFEADE2D
:1000CE00E880DB89828A83E493A3F208DFF980CC8F
:1000DE0088F0EF60010E4E60C388F0ED2402B40488
:1000EE000050B9F582EB2402B4040050AF2323452F
:0600FE00822390005E73F6
:10010400BB010689828A83E0225002E722BBFE02F9
:09011400E32289828A83E493222C
:10011D00BB010CE58229F582E5833AF583E0225097
:10012D0006E92582F8E622BBFE06E92582F8E222E1
:0D013D00E58229F582E5833AF583E49322FB
:10014A00BB010689828A83F0225002F722BBFE0194
:02015A00F3228E
:10015C00F8BB010DE58229F582E5833AF583E8F0D9
:10016C00225006E92582C8F622BBFE05E92582C885
:02017C00F2226D
:06017E008A838982E4730C
:00000001FF
