:03000000020502F4
:0C050200787FE4F6D8FD75815D020549A4
:100C2F00014E00C101C100015900015D00015B00CF
:060C3F00015A00015C06F1
:0B0D0E00120A65308DFD1208BD80F850
:100A6500754F1775500475510A75521675532875CB
:100A75005432755519E4F556755741F558120CD38E
:100A8500120D2E120AEF7BFF7A0C798FE4FF120B01
:100A9500E57BFF7A0779167F01120BE57BFF7A0B61
:070AA50079637F02020BE5FB
:0B0D1900055BE55BB46403E4F55B22BE
:1008BD00120D35120D19120AACE55C64067015F5B2
:1008CD005AFB7A00794F1206957B007A00794F1208
:1008DD00058E8020055AE55AB46419E4F55A78213D
:1008ED007C00FDFB7A00794FFE7F0A1200DE855CED
:1008FD002B02061278227C007D007B007A00794F56
:0D090D007E007F0A1200DEAF4E120472223F
:100CD300758901758CEC758A78C28DD28CD2A9D2B4
:020CE300AF223E
:03000B00020003ED
:07000300758CEC758A783260
:100C8F00E54E7018055DE55DD39403400F755D016A
:0D0C9F000559E559D394014003E4F55922AD
:10071600B2A4E55D24FE602B14604C2402706AE5E9
:1007260059700D054FE54FD39463405DE4F54F22B4
:10073600E559640170530552E552D39417404AE4D3
:10074600F55222E559700D0550E550D3940C403909
:1007560075500122E5596401702F0553E553D39472
:100766003B4026E4F55322E559700D0551E551D37A
:10077600941F401575510122E559B4010C0554E545
:0A07860054D3943B4003E4F55422E1
:100B6300054EE54EC394024003E4F54EE54E6401A1
:100B7300701E30010BFB7A00794FFF120184C20112
:100B830030000D7B007A00794F7F01120184C2008F
:060B9300E4F559F55D22B6
:100AAC00E559701BE55DB40104E4F55C22E55DB429
:100ABC000204755C0122E55DB40304755C0222E559
:100ACC0059B4011BE55DB40104755C0322E55DB40A
:100ADC000204755C0422E55DB40304755C052275A3
:030AEC005C062283
:040D400000000000AF
:030C4500011A0091
:100BC000C2A0051AE51AD394045002C322E4F51A10
:100BD000D2A07F03FE120D2420A00830A0FD20A08B
:050BE000FDD322C32239
:100CAC0030A0FD7F057E00120D2430A00520A0FD94
:040CBC00D322C3225A
:100C5100E4F529F52AF52AE52925E0F529120CAC58
:0F0C6100E4334229052AE52AC3940840EAAF2963
:010C70002261
:06058E008B218A22892363
:10059400E4F52478257C00FD7BFF7A0D7940FE7F0D
:1005A400041200DE120BC05064120C518F25120C81
:1005B400518F26120C518F27120C518F29120C5176
:1005C400E525252625272528AB21AA22A923900045
:1005D40008B5071CE52512015C900009E526120107
:1005E4005C900006E52712015C900007E528801A5C
:1005F400745912015C900009746212015C90000647
:0D060400745F12015C900007743B12015CF2
:0106110022C6
:070D2E00C290C291C29222A3
:0207FF00A90748
:10080100E4FBC29000D29000C29100C292007E002F
:100811007401A803088005C333CE33CED8F9FFE9AC
:10082100F582EF558224FF9292D29100C291000B82
:10083100BB08DBE4FB7E007401A803088005C33319
:10084100CE33CED8F9FFEDF582EF558224FF929297
:0D085100D29100C291000BBB08DBC29000E9
:01085E002277
:02085F00AD07E3
:10086100E4F9FB430501C29000D29000C29100C29D
:1008710092007E007401A803088005C333CE33CEF5
:10088100D8F9FFEDF582EF558224FF9292C29100D3
:10089100D291000BBB08DBE4FBD29100C291003086
:1008A100920DA8037401088002C333D8FC42010BE6
:0B08B100BB08E6C29000C29200AF013D
:0108BC002219
:100184008B218A228923AC07E4FD7F8E1207FFECC2
:10019400700302022714604A14600302026CAB214C
:1001A400AA22A923120104FF120CC0AD077F8C12EE
:1001B40007FFAB21AA22A92390000112011DFF12FF
:1001C4000CC0AD077F881207FFAB21AA22A9239098
:1001D400000212011DFF120CC0AD077F861207FF3B
:1001E4008041AB21AA22A923120104FF120CC0AD45
:1001F400077F8C1207FFAB21AA22A92390000112CA
:10020400011DFF120CC0AD077F881207FFAB21AAA6
:1002140022A92390000212011DFF120CC0AD077F1A
:10022400868042AB21AA22A92390000312011DFF5C
:10023400120CC0AD077F841207FFAB21AA22A923A9
:1002440090000412011DFF120CC0AD077F8212073B
:10025400FFAB21AA22A92390000512011DFF120C55
:0F026400C0AD077F801207FF7D807F8E0207FFEE
:100695008B218A2289237F8C12085F120CE5AB21FE
:1006A500AA22A923EF12014A7F8812085F120CE5DE
:1006B500AB21AA22A923900001EF12015C7F8612CB
:1006C500085F120CE5AB21AA22A923900002EF12C4
:1006D500015C7F8412085F120CE5AB21AA22A923D5
:1006E500900003EF12015C7F8212085F120CE5ABEC
:1006F50021AA22A923900004EF12015C7F80120831
:100705005F120CE5AB21AA22A923900005EF020197
:010715005C87
:050C48000308FFFFFF9F
:100BE500EF75F005A4240BF87601EF75F005A42444
:100BF5000CF87601EF75F005A4240DF8A60308A6F8
:050C05000208A6012217
:10096E00E4F521F521E52175F005A4240BF8E6FF49
:10097E00E52175F005A4240CF8E6FE6F602BEE70F1
:10098E0012E52175F005A4240DF808E6FA08E6F93B
:10099E0012017EE52175F005A4240BF8E6FFE52192
:1009AE0075F005A4240CF8A6070521E521C39403D0
:0209BE0040B344
:0109C0002214
:10091A00E4FFA2A133FEEF14600B14600C240270F2
:10092A000DA2A18006A2A28002A2A3E433FE74084B
:10093A002FF8E625E04EFD74082FF8A60574082F57
:10094A00F8E6FD700CEF75F005A4240BF8E4F680C8
:10095A000EEDB4FF0AEF75F005A4240BF876010F2B
:03096A00BF03B315
:01096D002267
:060D350012091A02096E0A
:0F0CE500EFC4540F75F00AA4FEEF540F2EFF2238
:100CC000EF75F00A84C454F0FEEF75F00A84EE2547
:030CD000F0FF2210
:0A0D2400EF1F70011E144E70F7223D
:100C7100D3EF9400EE940040147D7D7C00ED1D7057
:0D0C8100011CED4C70F7EF1F70E61E80E3C4
:010C8E002243
:1002730057656C636F6D6520746F202D2D2D3E0ABD
:10028300202053756E466F756E6465720054696DF8
:10029300653A6E6E3A78783A78780054696D653AC3
:1002A30078783A6E6E3A78780054696D653A787862
:1002B3003A78783A6E6E0054696D653A78783A7890
:1002C300783A787800446174653A6E6E2F78782FA7
:1002D300787800446174653A78782F6E6E2F787859
:1002E30000446174653A78782F78782F6E6E0044F5
:1002F3006174653A78782F78782F78780054656D33
:10030300703A78782E787820430048756D693A788A
:10031300782E78782025004572726F72202D2D2D4E
:100323003E0A202053756E466F756E646572000039
:100333004014540000000000000000000000000012
:0703430000000000000000B3
:030C4D00011B0088
:100AEF00C2A5C2A7C2027F33120C0AC2027F321202
:100AFF000C0AC2027F28120C0AC2027F0C120C0AC7
:100B0F00C2027F06120C0A120CF47BFF7A02797371
:0D0B1F00120B2C7FB87E0B120C71020CF42F
:100C0A008F4D120D3B40FBA20292A60053800FE5C6
:100C1A004D54F04280120D0253800FE54DC454F03A
:050C2A004280020D02F2
:040B99008F478D48AD
:100B9D0078497C007D007BFF7A0379327E007F04EB
:100BAD001200DE74492547F8E625484480FFC2024D
:030BBD00020C0A1D
:100B2C008B478A488949AB47AA48A94912010460F6
:100B3C0025B40A06C2027FC0800CAB47AA48A9495B
:100B4C00120104FFD202120C0A74012549F549E482
:060B5C003548F54880D089
:010B62002270
:0E0CF400C2027F01120C0A7F057E00020C7105
:0C0D0200C2A700D2A70000C2A700002278
:040D3B00C203A2034A
:010D3F002291
:04034A008F2C8D2D3A
:10034E0078387C007D007BFF7A0379367E007F064D
:10035E001200DEE53175F00A84F538E53175F00AE4
:10036E008485F039E53275F00A84F53AE53275F098
:10037E000A8485F03BE53375F00A84F53CE5337568
:10038E00F00A8485F03DE531B4FF0B7543FF7544EB
:10039E00027545908029E532B4FF0B7543FF754415
:1003AE000275459E8019E533B4FF0B7543FF754406
:1003BE00027545AC80097543FF7544027545BA75E3
:0F03CE00460E7B007A007938AD2DAF2C120790C8
:0103DD0022FD
:0403DE008F2C8D2DA6
:1003E20078387C007D007BFF7A03793C7E007F06B3
:1003F2001200DEE52E75F00A84F538E52E75F00A56
:100402008485F039E52F75F00A84F53AE52F75F009
:100412000A8485F03BE53075F00A84F53CE53075D9
:10042200F00A8485F03DE52EB4FF0B7543FF754459
:10043200027545C88029E52FB4FF0B7543FF75444B
:10044200027545D68019E530B4FF0B7543FF75443C
:10045200027545E480097543FF7544027545F275DE
:0F046200460E7B007A007938AD2DAF2C12079033
:010471002268
:0409C1008F2C8D2DBD
:1009C50078387C007D007BFF7A0379427E007F04C6
:1009D5001200DEE53475F00A84F538E53475F00A61
:1009E5008485F039E53575F00A84F53AE53575F015
:1009F5000A8485F03B7543FF7544037545007546CC
:0E0A05000D7B007A007938AD2DAF2C020790E2
:040A13008F2C8D2D6A
:100A170078387C007D007BFF7A0379467E007F046F
:100A27001200DEE53675F00A84F538E53675F00A0A
:100A37008485F039E53775F00A84F53AE53775F0BE
:100A47000A8485F03B7543FF75440375450D75466C
:0E0A57000D7B007A007938AD2DAF2C02079090
:020472008F21D8
:10047400E51B6521600A120CF47F2C7E01120C71BD
:1004840085211BE521146036047066782E7C007D7E
:10049400007B007A0079227E007F0A1200DEE4FDF0
:1004A400FF1203DE782E7C007D007B007A00792227
:1004B4007E007F0A1200DEE4FD7F0102034A782EEB
:1004C4007C007D007B007A0079227E007F0A120086
:1004D400DEE4FDFF1209C1782E7C007D007B007AEA
:1004E4000079227E007F0A1200DEE4FD7F01020A09
:0D04F40013120CF47BFF7A03791A120B2C03
:0105010022D7
:10061200E52B14601514601714601914601B146024
:100622001D2405701C7521FF80177522FF8012752D
:1006320023FF800D7524FF80087525FF8003752632
:10064200FFE52B600964016005E52BB40219782EE1
:100652007C007D007B007A0079217E007F0A1200F7
:10066200DEE4FDFF0203DEE52B6403600BE52B6491
:10067200046005E52BB4051A782E7C007D007B0012
:100682007A0079217E007F0A1200DEE4FD7F0112EA
:03069200034A22F6
:080790008F3E8B408A41894233
:10079800E4FFFEEFC395465050AB43AA44A9458FEA
:1007A8008275830012011DB47821AB40AA41A94289
:1007B8008E8275830012011D2430AB43AA44A945DB
:1007C8008F8275830012015C0E801BAB43AA44A97B
:1007D800458F8275830012011DB46E0A8F8275835E
:1007E80000742012015C0F80AAAF3E120B99AB4334
:0707F800AA44A945020B2CE5
:10050E00020D0EE493A3F8E493A34003F68001F2E8
:10051E0008DFF48029E493A3F85407240CC8C333EE
:10052E00C4540F4420C8834004F456800146F6DFBD
:10053E00E4800B0102040810204080900C2FE47E12
:10054E00019360BCA3FF543F30E509541FFEE493B2
:10055E00A360010ECF54C025E060A840B8E493A379
:10056E00FAE493A3F8E493A3C8C582C8CAC583CAA4
:10057E00F0A3C8C582C8CAC583CADFE9DEE780BE5C
:010C500000A3
:10000E00E709F608DFFA8046E709F208DFFA803ED4
:10001E0088828C83E709F0A3DFFA8032E309F608C1
:10002E00DFFA8078E309F208DFFA807088828C8329
:10003E00E309F0A3DFFA806489828A83E0A3F608DD
:10004E00DFFA805889828A83E0A3F208DFFA804CB7
:10005E0080D280FA80C680D4806980F2803380108E
:10006E0080A680EA809A80A880DA80E280CA8033F7
:10007E0089828A83ECFAE493A3C8C582C8CCC5836F
:10008E00CCF0A3C8C582C8CCC583CCDFE9DEE7803F
:10009E000D89828A83E493A3F608DFF9ECFAA9F0BE
:1000AE00EDFB2289828A83ECFAE0A3C8C582C8CC14
:1000BE00C583CCF0A3C8C582C8CCC583CCDFEADE2D
:1000CE00E880DB89828A83E493A3F208DFF980CC8F
:1000DE0088F0EF60010E4E60C388F0ED2402B40488
:1000EE000050B9F582EB2402B4040050AF2323452F
:0600FE00822390005E73F6
:10010400BB010689828A83E0225002E722BBFE02F9
:09011400E32289828A83E493222C
:10011D00BB010CE58229F582E5833AF583E0225097
:10012D0006E92582F8E622BBFE06E92582F8E222E1
:0D013D00E58229F582E5833AF583E49322FB
:10014A00BB010689828A83F0225002F722BBFE0194
:02015A00F3228E
:10015C00F8BB010DE58229F582E5833AF583E8F0D9
:10016C00225006E92582C8F622BBFE05E92582C885
:02017C00F2226D
:06017E008A838982E4730C
:00000001FF
